:100000000C942A000C9447000C9447000C94470071
:100010000C9447000C9447000C9447000C94470044
:100020000C9447000C9447000C9447000C94470034
:100030000C9447000C945A060C9447000C9447000B
:100040000C9447000C9447000C9447000C94470014
:100050000C94470011241FBECFE5D8E0DEBFCDBF12
:1000600012E0A0E6B0E0E2E1F8E102C005900D92F6
:10007000AC31B107D9F722E0ACE1B2E001C01D928A
:10008000AF3CB207E1F70E94A3060C94070C0C9456
:1000900000000F931F93CF93DF9300D000D0CDB714
:1000A000DEB78C018FEF9FEF9C838B831A821982BE
:1000B00040E065E080E00E948C04BE016E5F7F4FEF
:1000C000CE0104960E940005BE016F5F7F4FCE01F6
:1000D00003960E94000541E065E080E00E948C04E8
:1000E00081E28A95F1F7000040E065E080E00E943F
:1000F0008C04BE016E5F7F4FCE0104960E94000506
:10010000BE016F5F7F4FCE0103960E94000541E064
:1001100065E080E00E948C0469817A8180E090E053
:100120000E94E60720E030E44CE955E40E947408A0
:1001300020E030E040E857E30E947408F801608353
:100140007183828393830F900F900F900F90DF91B4
:10015000CF911F910F910895089521E041E065E04E
:1001600080E00C94EA03CF93CFEFC80F4C2F41707F
:1001700060E080E00E948C04C1FB442740F961E00C
:1001800080E00E948C04C2FB442740F962E080E0DA
:100190000E948C04C3FB442740F963E080E00E9486
:1001A0008C04C4FB442740F964E080E00E948C0486
:1001B00081E28A95F1F70000CF910895089520E03B
:1001C00041E060E080E00E94EA0320E041E061E07D
:1001D00080E00E94EA0320E041E062E080E00E94CB
:1001E000EA0320E041E063E080E00E94EA0320E0CF
:1001F00041E064E080E00C94EA03CF93DF93EB01ED
:1002000090E0DC01AA0FBB1FAA0FBB1FA45EBD4F6D
:10021000880F991F880F991FFC01E85EFD4F208110
:100220003181428153816D917D918D919C910E948C
:10023000D80620E030E040E05FE30E94D9060E944B
:10024000B70779836883DF91CF9108950F931F9348
:10025000CF93DF9300D000D0CDB7DEB70091A002DE
:1002600010E00F5F1F4F802F0E94B300CE01019658
:100270000E944900093011052CF420E030E04AE8E2
:1002800052E417C0013111052CF420E030E04CE0BD
:1002900053E40FC0093111052CF420E030E042E5B1
:1002A00053E407C001321105A4F420E030E04EE829
:1002B00053E469817A818B819C810E94740820E0DB
:1002C00030E040E251E40E94450769837A838B83E2
:1002D0009C83000F111F000F111FF801E45EFD4FFA
:1002E00089819A81AB81BC8180839183A283B3830E
:1002F0008091A00290E001968F7199278093A002CF
:100300000F900F900F900F90DF91CF911F910F9151
:1003100008950895CF92DF92EF92FF920F931F936B
:10032000CF93DF93CDB7DEB767970FB6F894DEBFF4
:100330000FBECDBF1F8A1E8A1D8A9E012F5F3F4FB1
:10034000790184E1F90111928A95E9F7BE01695EAC
:100350007F4F85EA92E00E941F068F89813009F065
:10036000DAC160E670E085EA92E00E94E108009759
:1003700009F4CAC165E670E00E94E608892B09F01D
:10038000BCC160E670E080E090E00E94E1088C0172
:10039000009731F4BE01695E7F4F89E690E0B2C1FB
:1003A0006CE770E00E94E608892B29F4BE016B5EC1
:1003B0007F4F81E00BC063E870E0C8010E94E6084F
:1003C000892BC9F4BE016B5E7F4F82E00E94FD0065
:1003D0008E898F938D898F938FE790E09F938F9372
:1003E000FF92EF920E941D090F900F900F900F90B7
:1003F0000F900F907DC166E870E0C8010E94E6088A
:10040000892B29F4BE016B5E7F4F83E0DFCF69E863
:1004100070E0C8010E94E608892B29F4BE016B5EDA
:100420007F4F84E0D3CF6CE870E0C8010E94E608FB
:10043000892B29F4BE016B5E7F4F85E0C7CF6FE843
:1004400070E0C8010E94E608892B29F4BE016B5EAA
:100450007F4F86E0BBCF62E970E0C8010E94E608EA
:10046000892B29F4BE016B5E7F4F87E0AFCF65E932
:1004700070E0C8010E94E608892B29F4BE016B5E7A
:100480007F4F88E0A3CF68E970E0C8010E94E608CA
:10049000892B29F4BE016B5E7F4F89E097CF6BE912
:1004A00070E0C8010E94E608892B29F4BE016B5E4A
:1004B0007F4F8AE08BCF6FE970E0C8010E94E608A9
:1004C000892B29F4BE016B5E7F4F8BE07FCF63EAFF
:1004D00070E0C8010E94E608892B29F4BE016B5E1A
:1004E0007F4F8CE073CF67EA70E0C8010E94E60896
:1004F000892B29F4BE016B5E7F4F8DE067CF6BEADD
:1005000070E0C8010E94E608892B29F4BE016B5EE9
:100510007F4F8EE05BCF6FEA70E0C8010E94E60873
:10052000892B29F4BE016B5E7F4F8FE04FCF63EBC9
:1005300070E0C8010E94E608892B29F4BE016B5EB9
:100540007F4F80E143CF67EB70E0C8010E94E6086F
:10055000892B29F4BE016B5E7F4F81E137CF6BEBB6
:1005600070E0C8010E94E608892B29F4BE016B5E89
:100570007F4F82E12BCF6FEB70E0C8010E94E6084D
:10058000892B29F4BE016B5E7F4F83E11FCF63ECA3
:1005900070E0C8010E94E608892B29F4BE016B5E59
:1005A0007F4F84E113CF67EC70E0C8010E94E6083A
:1005B000892B29F4BE016B5E7F4F85E107CF6BEC81
:1005C00070E0C8010E94E608892B29F4BE016B5E29
:1005D0007F4F86E1FBCE6FEC70E0C8010E94E60819
:1005E000892B29F4BE016B5E7F4F87E1EFCE63ED6F
:1005F00070E0C8010E94E608892B29F4BE016B5EF9
:100600007F4F88E1E3CE67ED70E0C8010E94E60805
:10061000892B29F4BE016B5E7F4F89E1D7CE6BED4C
:1006200070E0C8010E94E608892B29F4BE016B5EC8
:100630007F4F8AE1CBCE6FED70E0C8010E94E608E3
:100640009E012F5F3F4F6901892B29F4BE016B5E2C
:100650007F4F8BE13BC063EE70E0C8010E94E6086B
:10066000892B29F4BE016B5E7F4F8CE12FC067EEB2
:1006700070E0C8010E94E608892B29F4BE016B5E78
:100680007F4F8DE123C06BEE70E0C8010E94E60849
:10069000892B29F4BE016B5E7F4F8EE117C06FEE90
:1006A00070E0C8010E94E608892B29F4BE016B5E48
:1006B0007F4F8FE10BC063EF70E0C8010E94E60836
:1006C000892B89F4BE016B5E7F4F80E20E94FD00A2
:1006D0008E898F938D898F938FE790E09F938F936F
:1006E000DF92CF927FCE67EF70E0C6010E94EF08E5
:1006F000BE01695E7F4FC70105C0BE01695E7F4FC5
:1007000084E091E00E943706BE01695E7F4F85E17B
:1007100091E00E94370667960FB6F894DEBF0FBED1
:10072000CDBFDF91CF911F910F91FF90EF90DF90A0
:10073000CF900895CF93DF931F92CDB7DEB7198284
:10074000BE016F5F7F4F89E191E00E943706BE01D5
:100750006F5F7F4F84E491E00E943706BE016F5FB8
:100760007F4F8FE691E00E943706BE016F5F7F4F9B
:100770008AE991E00E943706BE016F5F7F4F85ECEA
:1007800091E00E943706BE016F5F7F4F8FE691E0D8
:100790000E943706BE016F5F7F4F80EF91E00E949D
:1007A0003706BE016F5F7F4F89E191E00E943706F7
:1007B000BE016F5F7F4F83E690E00E943706BE0167
:1007C0006F5F7F4F85E191E00E9437060F90DF91C8
:1007D000CF9108958F929F92AF92BF92CF92DF9266
:1007E000EF92FF920F931F93CF93DF93813009F421
:1007F00047C028F1823009F464C0833009F07FC01B
:1008000032B381E090E0062E01C0880F0A94EAF727
:100810008095A22FA170062E01C0AA0F0A94EAF7B4
:10082000932F9823A92BA2BB91B3E42FE17001C0B1
:10083000EE0F6A95EAF789238E2B81BB60C03BB32C
:1008400081E090E0062E01C0880F0A94EAF78095B7
:1008500020FB882480F8062E01C0880C0A94EAF751
:10086000932F9823892A8BBA9AB340FBAA24A0F825
:1008700001C0AA0C6A95EAF789238A298ABB3FC07E
:1008800038B381E090E0062E01C0880F0A94EAF7A1
:10089000809520FBCC24C0F8062E01C0CC0C0A9415
:1008A000EAF7932F9823C92AC8BA97B340FBEE24DE
:1008B000E0F801C0EE0C6A95EAF789238E2987BB20
:1008C0001EC035B381E090E0062E01C0880F0A9467
:1008D000EAF78095022F0170062E01C0000F0A94DE
:1008E000EAF7932F9823092B05BB94B34170C42FCB
:1008F00001C0CC0F6A95EAF789238C2B84BBDF916A
:10090000CF911F910F91FF90EF90DF90CF90BF900C
:10091000AF909F908F900895CF93DF93813061F1D6
:10092000C0F08230E1F1833009F04BC052B381E076
:1009300090E0062E01C0880F0A94EAF7809585237F
:10094000242F217001C0220F6A95EAF7282B22BBC1
:1009500038C02BB381E090E0062E01C0880F0A94C6
:10096000EAF7809582234170C42F01C0CC0F6A95AD
:10097000EAF7C82BCBBB25C028B381E090E0062E58
:1009800001C0880F0A94EAF780958223A42FA170F2
:1009900001C0AA0F6A95EAF7A82BA8BB12C025B31D
:1009A00081E090E0062E01C0880F0A94EAF7809556
:1009B0008223E42FE17001C0EE0F6A95EAF7E82B7D
:1009C000E5BBDF91CF910895FA01813049F030F015
:1009D000823041F0833081F480B305C089B303C015
:1009E00086B301C083B390E002C0959587956A9560
:1009F000E2F7817080830895108208950895089524
:100A0000FC0180818FB9779BFECF8FB1FB01808382
:100A10000895089521E041E067E081E00E94EA0343
:100A200020E041E065E081E00E94EA0320E040E050
:100A300066E081E00E94EA038DE58DB90895CF92CA
:100A4000DF92EF92FF920F931F93CF937C010AE006
:100A500010E0B8010E94C4066B01C82F482F4170F6
:100A600060E082E00E948C04C1FB442740F961E011
:100A700082E00E948C04C2FB442740F962E082E0DD
:100A80000E948C044C2F46954695469563E082E083
:100A90000E948C04C601B8010E94C406C82F482FCA
:100AA000417064E082E00E948C04C1FB442740F95D
:100AB00065E082E00E948C04C2FB442740F966E0B6
:100AC00082E00E948C044C2F46954695469567E03F
:100AD00082E00E948C04C70164E670E00E94C406B4
:100AE000CB01B8010E94C406C82F482F417060E0B6
:100AF00083E00E948C04C1FB442740F961E083E05D
:100B00000E948C04C2FB442740F962E083E00E940B
:100B10008C044C2F46954695469563E083E00E94F1
:100B20008C04C70168EE73E00E94C406CB01B801D3
:100B30000E94C406C82F482F417064E083E00E94E1
:100B40008C04C1FB442740F965E083E00E948C04DB
:100B5000C2FB442740F966E083E00E948C044C2FDE
:100B600046954695469567E083E0CF911F910F919A
:100B7000FF90EF90DF90CF900C948C04089520E0CC
:100B800041E060E082E00E94EA0320E041E061E0B1
:100B900082E00E94EA0320E041E062E082E00E94FD
:100BA000EA0320E041E063E082E00E94EA0320E003
:100BB00041E064E082E00E94EA0320E041E065E079
:100BC00082E00E94EA0320E041E066E082E00E94C9
:100BD000EA0320E041E067E082E00E94EA0320E0CF
:100BE00041E060E083E00E94EA0320E041E061E050
:100BF00083E00E94EA0320E041E062E083E00E949B
:100C0000EA0320E041E063E083E00E94EA0320E0A1
:100C100041E064E083E00E94EA0320E041E065E017
:100C200083E00E94EA0320E041E066E083E00E9466
:100C3000EA0320E041E067E083E00C94EA031F93BD
:100C4000CF93DF931091A202113059F4EB016AEBBC
:100C500072E00E94EF081092A1021092A202188383
:100C600002C0FB011082DF91CF911F910895FC011A
:100C70008DE02AE09191992369F09A3039F45D9BD7
:100C8000FECF8CB95D9BFECF2CB9F4CF5D9BFECF20
:100C90009CB9F0CF81E0FB0180830895089510BCDA
:100CA0008CE089B982E08BB988E98AB986E880BD91
:100CB000789408951F920F920FB60F9211248F937C
:100CC0009F93EF93FF938CB19091A202911130C04A
:100CD0008A3071F1E091A1028D3079F481E0809346
:100CE000A202F0E0E654FD4F10825D9BFECF8DE046
:100CF0008CB95D9BFECF8AE01AC0883061F4EE2388
:100D0000B9F0E150E093A102F0E0E654FD4F10820B
:100D10005D9BFECF0CC0E43158F491E09E0F9093A0
:100D2000A102F0E0E654FD4F80835D9BFECF8CB9BD
:100D3000FF91EF919F918F910F900FBE0F901F9099
:100D40001895089508950E94A2060E94FF040E942B
:100D50000A050E94DF000E94AD000E9489010E94E6
:100D60004F060E949A030E94A1060E94FE040E9460
:100D700009050E94DE000E94AC000E9426010E942C
:100D80004E060E948A01EFCFAA1BBB1B51E107C090
:100D9000AA1FBB1FA617B70710F0A61BB70B881F0B
:100DA000991F5A95A9F780959095BC01CD0108959A
:100DB0005058BB27AA270E94F0060C943A080E94BC
:100DC0002C0838F00E94330820F039F49F3F19F4C2
:100DD00026F40C9429080EF4E095E7FB0C94230804
:100DE000E92F0E944B0858F3BA176207730784076C
:100DF000950720F079F4A6F50C946D080EF4E095B3
:100E00000B2EBA2FA02D0B01B90190010C01CA01C4
:100E1000A0011124FF27591B99F0593F50F4503E6F
:100E200068F11A16F040A22F232F342F4427585F61
:100E3000F3CF469537952795A795F0405395C9F779
:100E40007EF41F16BA0B620B730B840BBAF0915031
:100E5000A1F0FF0FBB1F661F771F881FC2F70EC0D0
:100E6000BA0F621F731F841F48F4879577956795A3
:100E7000B795F7959E3F08F0B0CF9395880F08F08F
:100E80009927EE0F9795879508950E9459070C941E
:100E90003A080E94330858F00E942C0840F029F4C8
:100EA0005F3F29F00C94230851110C946E080C94A8
:100EB00029080E944B0868F39923B1F3552391F355
:100EC000951B550BBB27AA2762177307840738F0B9
:100ED0009F5F5F4F220F331F441FAA1FA9F335D016
:100EE0000E2E3AF0E0E832D091505040E695001CCA
:100EF000CAF72BD0FE2F29D0660F771F881FBB1F84
:100F0000261737074807AB07B0E809F0BB0B802D61
:100F1000BF01FF2793585F4F3AF09E3F510578F08D
:100F20000C9423080C946E085F3FE4F3983ED4F3CE
:100F3000869577956795B795F7959F5FC9F7880F61
:100F4000911D9695879597F90895E1E0660F771FB3
:100F5000881FBB1F621773078407BA0720F0621B44
:100F6000730B840BBA0BEE1F88F7E09508950E946F
:100F7000530888F09F5798F0B92F9927B751B0F0D0
:100F8000E1F0660F771F881F991F1AF0BA95C9F70D
:100F900014C0B13091F00E946D08B1E008950C9436
:100FA0006D08672F782F8827B85F39F0B93FCCF3E9
:100FB000869577956795B395D9F73EF4909580958A
:100FC000709561957F4F8F4F9F4F0895E89409C0AA
:100FD00097FB3EF490958095709561957F4F8F4F6C
:100FE0009F4F9923A9F0F92F96E9BB279395F69582
:100FF000879577956795B795F111F8CFFAF4BB0F00
:1010000011F460FF1BC06F5F7F4F8F4F9F4F16C063
:10101000882311F096E911C0772321F09EE8872FED
:10102000762F05C0662371F096E8862F70E060E0A9
:101030002AF09A95660F771F881FDAF7880F969522
:10104000879597F9089597F99F6780E870E060E0C9
:1010500008959FEF80EC089500240A941616170651
:1010600018060906089500240A9412161306140699
:1010700005060895092E0394000C11F4882352F0FC
:10108000BB0F40F4BF2B11F460FF04C06F5F7F4FB4
:101090008F4F9F4F089557FD9058440F551F59F09B
:1010A0005F3F71F04795880F97FB991F61F09F3F55
:1010B00079F087950895121613061406551FF2CF7E
:1010C0004695F1DF08C0161617061806991FF1CFCE
:1010D00086957105610508940895E894BB276627F5
:1010E0007727CB0197F908950E9487080C943A0856
:1010F0000E942C0838F00E94330820F0952311F04C
:101100000C9423080C94290811240C946E080E9456
:101110004B0870F3959FC1F3950F50E0551F629FE8
:10112000F001729FBB27F00DB11D639FAA27F00D40
:10113000B11DAA1F649F6627B00DA11D661F829F67
:101140002227B00DA11D621F739FB00DA11D621F4C
:10115000839FA00D611D221F749F3327A00D611D69
:10116000231F849F600D211D822F762F6A2F11244B
:101170009F5750409AF0F1F088234AF0EE0FFF1F7E
:10118000BB1F661F771F881F91505040A9F79E3FD5
:10119000510580F00C9423080C946E085F3FE4F333
:1011A000983ED4F3869577956795B795F795E7952B
:1011B0009F5FC1F7FE2B880F911D9695879597F934
:1011C000089543EA52E00E94F6080895FB01DC010D
:1011D0008D91019080190110D9F3990B0895FB01AD
:1011E000DC0101900D920020E1F70895FA01A19130
:1011F000B081009719F41097E1F0CD01DC01CD0129
:101200000D90002011F4C00113C0FB012191222395
:1012100019F02015D9F7F3CFFB012191201519F40E
:101220001E92119606C02223C1F70D900020A1F74F
:10123000D001FA01A193B0830895AEE0B0E0E3E2FB
:10124000F9E00C94DE0B0D891E8986E08C831A83ED
:1012500009838FEF9FE79E838D83AE01475E5F4FCB
:101260006F89788DCE0101960E943F09EF81F88544
:10127000E00FF11F10822E96E4E00C94FA0BABE025
:10128000B0E0E5E4F9E00C94D00B6C017B018A013D
:10129000FC0117821682838181FFCCC1CE010196A9
:1012A0003C01F6019381F70193FD859193FF8191B4
:1012B0007F01882309F4BAC1853239F493FD859101
:1012C00093FF81917F01853229F4B60190E00E945D
:1012D000360BE7CF912C212C312CFFE1F315D8F000
:1012E0008B3279F038F4803279F08332A1F4232DF7
:1012F00020611DC08D3261F0803369F4232D21609F
:1013000016C0832D8260382EE32DE4603E2E2AC065
:10131000F32DF8601DC037FC2DC020ED280F2A30BA
:1013200040F08E32B9F436FC81C1232D2064322E78
:1013300019C036FE06C08AE0989E200D1124922E18
:1013400011C0EAE02E9E200D1124222EF32DF06212
:101350003F2E08C08C3621F4832D8068382E02C0C1
:10136000883641F4F70193FD859193FF81917F01C8
:101370008111B3CF982F9F7D9554933028F40C5F43
:101380001F4F9FE399830DC0833631F0833771F08F
:10139000833509F059C021C0F801808189830E5F2F
:1013A0001F4F88248394912C530113C02801F2E02D
:1013B0004F0E511CF801A080B18036FE03C0692D8C
:1013C00070E002C06FEF7FEFC5010E942B0B4C0154
:1013D0008201F32DFF773F2E16C0280122E0420E36
:1013E000511CF801A080B18036FE03C0692D70E069
:1013F00002C06FEF7FEFC5010E94200B4C01F32D5F
:10140000F0683F2E820133FC1BC0822D90E08816CD
:101410009906B0F4B60180E290E00E94360B2A945F
:10142000F4CFF50137FC859137FE81915F01B6015C
:1014300090E00E94360B21102A9421E0821A910834
:101440008114910471F7E8C0843611F0893641F5B2
:10145000F80137FE07C060817181828193810C5F42
:101460001F4F08C060817181072E000C880B990BFB
:101470000E5F1F4FF32DFF763F2E97FF09C090950B
:101480008095709561957F4F8F4F9F4FF0683F2EED
:101490002AE030E0A3010E94720B882E861845C016
:1014A000853731F4232D2F7EB22E2AE030E025C07F
:1014B000932D997FB92E8F36C1F018F4883579F0C5
:1014C000B5C0803719F0883721F0B0C0E92FE0614E
:1014D000BE2EB4FE0DC0FB2DF460BF2E09C034FE3D
:1014E0000AC0292F2660B22E06C028E030E005C0D1
:1014F00020E130E002C020E132E0F801B7FE07C091
:1015000060817181828193810C5F1F4F06C0608171
:10151000718180E090E00E5F1F4FA3010E94720B6B
:10152000882E8618FB2DFF773F2E36FE0DC0232D0B
:101530002E7FA22E891458F434FE0BC032FC09C051
:10154000832D8E7EA82E05C0B82CA32C03C0B82CEA
:1015500001C0B92CA4FE0FC0FE01E80DF11D808171
:10156000803321F49A2D997EA92E09C0A2FE06C0CF
:10157000B394B39404C08A2D867809F0B394A3FC85
:1015800011C0A0FE06C0B21488F4280C922C9B183F
:101590000EC0B21460F4B60180E290E00E94360BF7
:1015A000B394F7CFB21418F42B1802C0982C212C46
:1015B000A4FE10C0B60180E390E00E94360BA2FEAC
:1015C00017C0A1FC03C088E790E002C088E590E066
:1015D000B6010CC08A2D867859F0A1FE02C08BE2BC
:1015E00001C080E2A7FC8DE2B60190E00E94360BBC
:1015F000891438F4B60180E390E00E94360B9A9487
:10160000F7CF8A94F301E80DF11D8081B60190E0D7
:101610000E94360B8110F5CF222009F442CEB6018C
:1016200080E290E00E94360B2A94F6CFF601868184
:10163000978102C08FEF9FEF2B96E2E10C94EC0BA9
:10164000FC010590615070400110D8F7809590958D
:101650008E0F9F1F0895FC01615070400190011092
:10166000D8F7809590958E0F9F1F08950F931F9325
:10167000CF93DF93FB01238121FD03C08FEF9FEF09
:101680002CC022FF16C04681578124813581421724
:10169000530744F4A081B1819D012F5F3F4F3183F7
:1016A00020838C93268137812F5F3F4F378326839A
:1016B00014C08B01EC01FB010084F185E02D09953C
:1016C000892BE1F6D80116968D919C91179701967A
:1016D00017969C938E931697CE01DF91CF911F9111
:1016E0000F910895FA01AA27283051F1203181F194
:1016F000E8946F936E7F6E5F7F4F8F4F9F4FAF4F1A
:10170000B1E03ED0B4E03CD0670F781F891F9A1F2C
:10171000A11D680F791F8A1F911DA11D6A0F711DE0
:10172000811D911DA11D20D009F468943F912AE0EC
:10173000269F11243019305D3193DEF6CF010895D4
:10174000462F4770405D4193B3E00FD0C9F7F6CF05
:10175000462F4F70405D4A3318F0495D31FD4052CD
:10176000419302D0A9F7EACFB4E0A6959795879563
:1017700077956795BA95C9F7009761057105089542
:101780009B01AC010A2E06945795479537952795EE
:10179000BA95C9F7620F731F841F951FA01D089586
:1017A0002F923F924F925F926F927F928F929F9271
:1017B000AF92BF92CF92DF92EF92FF920F931F935F
:1017C000CF93DF93CDB7DEB7CA1BDB0B0FB6F89410
:1017D000DEBF0FBECDBF09942A88398848885F8450
:1017E0006E847D848C849B84AA84B984C884DF80C1
:1017F000EE80FD800C811B81AA81B981CE0FD11DA5
:101800000FB6F894DEBF0FBECDBFED010895F8947A
:02181000FFCF08
:1018120020090D0A00474554004558504543544598
:101822004420564152204E414D450A004231002586
:10183200640A004232004233004234004235004220
:10184200360042370042380042390042313000420D
:1018520031310042313200423133004231340042F0
:1018620031350042313600423137004231380042D0
:1018720031390042323000423231004232320042CB
:1018820032330042323400423235004232360042B4
:10189200323700423238004232390042333000429D
:1018A20033310042333200554E4B4E4F574E205685
:1018B20041520A00554E4B4E4F574E20434F4D4D0D
:1018C200414E440A003E3E20002A2A2A2A2A2A2A77
:1018D2002A2A2A2A2A2A2A2A2A2A2A2A2A2A2A2A66
:1018E2002A2A2A2A2A2A2A2A2A2A2A2A2A2A2A2A56
:1018F2002A2A0A0020202020202020202020202008
:1019020057656C636F6D6520746F20424D532020C4
:10191200202020202020202020202020200A0020FB
:1019220020202020202020202020202020202020B5
:1019320020202020202020202020202020202020A5
:1019420020202020202020200A00205468697320B3
:10195200636F6D6D616E64206C696E6520696E7473
:1019620065726661636520616C6C6F777320796F55
:101972007520200A0020746F20636F6E74726F6C82
:101982002074686520424D5320626F617264206149
:101992006E64207265616420646174612E200A00A5
:1019A20020436F7079726967687420284329204F39
:1019B2007A6F6E6520616E642052616D736573206B
:0C19C2004E616769622E2020200A0000A0
:00000001FF
