:100000000C942A000C9447000C9447000C94470071
:100010000C9447000C9447000C9447000C94470044
:100020000C9447000C9447000C9447000C94470034
:100030000C9447000C9490050C9447000C944700D6
:100040000C9447000C9447000C9447000C94470014
:100050000C94470011241FBECFE5D8E0DEBFCDBF12
:1000600013E0A0E6B0E0EEE9FCE202C005900D92DC
:10007000A632B107D9F713E0A6E2B3E001C01D92A2
:10008000A93DB107E1F70E9449000C944D160C946C
:1000900000000E9479030E94BF010E9491020E9409
:1000A0007B030E94CA030E94ED010E9483050E9407
:1000B00007060E9478030E94BE010E9490020E94DF
:1000C0007A030E94C9030E94EE010E9482050E94E9
:1000D0005706EFCF542F922F813091F1813038F0B5
:1000E000823009F456C0833009F0A4C07BC0EBE332
:1000F000F0E0408121E030E0062E02C0220F331FE5
:100100000A94E2F72095892F90E081709070062E76
:1001100002C0880F991F0A94E2F74223482B4083BC
:10012000EAE3F0E04081852F90E08170907002C09A
:10013000880F991F6A95E2F72423282B20830895BE
:10014000E8E3F0E0408121E030E0062E02C0220F1B
:10015000331F0A94E2F72095892F90E08170907008
:10016000062E02C0880F991F0A94E2F74223482BFB
:100170004083E7E3F0E04081852F90E0817090704C
:1001800002C0880F991F6A95E2F72423282B208349
:100190000895E5E3F0E0408121E030E0062E02C062
:1001A000220F331F0A94E2F72095892F90E0817087
:1001B0009070062E02C0880F991F0A94E2F742231E
:1001C000482B4083E4E3F0E04081852F90E081708C
:1001D000907002C0880F991F6A95E2F72423282B9C
:1001E00020830895E2E3F0E0408121E030E0062E34
:1001F00002C0220F331F0A94E2F72095892F90E066
:1002000081709070062E02C0880F991F0A94E2F741
:100210004223482B4083E1E3F0E04081852F90E0CA
:100220008170907002C0880F991F6A95E2F72423AD
:10023000282B20830895242F813009F1813030F05C
:100240008230B1F1833009F064C04BC0EBE3F0E0E1
:10025000408130E021703070062E02C0220F331F23
:100260000A94E2F781E090E0062E02C0880F991F01
:100270000A94E2F780958423822B80830895E8E333
:10028000F0E0408130E021703070062E02C0220F75
:10029000331F0A94E2F781E090E0062E02C0880F37
:1002A000991F0A94E2F780958423822B8083089516
:1002B000E5E3F0E0408130E021703070062E02C0AE
:1002C000220F331F0A94E2F781E090E0062E02C06D
:1002D000880F991F0A94E2F780958423822B8083EC
:1002E0000895E2E3F0E0408130E021703070062EA6
:1002F00002C0220F331F0A94E2F781E090E0062E3D
:1003000002C0880F991F0A94E2F780958423822BFC
:1003100080830895FA01813089F0813028F082309D
:10032000B9F0833049F51EC089B390E002C09595BD
:1003300087956A95E2F781708083089586B390E08F
:1003400002C0959587956A95E2F78170808308953C
:1003500083B390E002C0959587956A95E2F7817026
:100360008083089580B390E002C0959587956A9543
:10037000E2F78170808308951082089508950895AA
:100380000F931F938B0190E0E7E2F3E09C01220FB3
:10039000331F220F331FDF01A20FB31F0197880FF6
:1003A000991F880F991FE80FF91F6D917D918D910D
:1003B0009C9120813181428153810E94BC0D20E0BB
:1003C00030E040E05FE30E94ED0D0E94440CF80134
:1003D000718360831F910F91089508950F931F9368
:1003E000DF93CF9300D000D0CDB7DEB78091260346
:1003F00090E08C010F5F1F4F802F0E949A03CE0167
:1004000001960E94D10309301105ACF469817A810B
:100410008B819C8120E030E04AE852E40E941A0E71
:1004200020E030E040E251E40E94140F69837A83B7
:100430008B839C8347C001311105ACF469817A81BB
:100440008B819C8120E030E04CE053E40E941A0E46
:1004500020E030E040E251E40E94140F69837A8387
:100460008B839C832FC009311105ACF469817A819B
:100470008B819C8120E030E042E553E40E941A0E1B
:1004800020E030E040E251E40E94140F69837A8357
:100490008B839C8317C001321105A4F469817A8192
:1004A0008B819C8120E030E04EE853E40E941A0EDC
:1004B00020E030E040E251E40E94140F69837A8327
:1004C0008B839C83F801EE0FFF1FEE0FFF1FE95D8A
:1004D000FC4F89819A81AB81BC8180839183A28307
:1004E000B3838091260390E0019660E270E00E9461
:1004F0002613809326030F900F900F900F90CF91AB
:10050000DF911F910F910895FC01DB0180818FB96C
:10051000EEE2F0E080818823ECF78FB18C930895B0
:10052000089581E067E041E021E00E946A0081E0F7
:1005300065E041E020E00E946A0081E066E040E082
:1005400020E00E946A008DE58DB90895AF92BF92B8
:10055000CF92DF92EF92FF920F931F93A0E0B0E053
:10056000BC01CD010E94A4105B016C012BEA3AEAA8
:100570004AEA5EE30E941A0E7B018C0120E030E023
:1005800040E85FE30E942010882314F461E053C028
:10059000C801B70120E030E04FE753E40E94C00FEC
:1005A00018160CF044C0C601B50120E030E04AE75F
:1005B00054E40E94140F5B016C0120E030E04AE734
:1005C00053E40E941A0E7B018C0120E030E040E8E9
:1005D0005FE30E94201088231CF461E070E023C0D8
:1005E000C801B70120E03FEF4FE757E40E94C00F7A
:1005F0001816ACF4C601B50120E030E040E251E449
:100600000E941A0E0E94440CCB01672BB1F029E125
:1006100030E0F9013197F1F70197D9F70EC0C80121
:10062000B7010E94440CCB010197F1F706C0C80145
:10063000B7010E94440C6A95F1F71F910F91FF904A
:10064000EF90DF90CF90BF90AF900895AF92BF92A0
:10065000CF92DF92EF92FF920F931F93A0E0B0E052
:10066000BC01CD010E94A4105B016C0120E030E0D0
:100670004AE753E40E941A0E7B018C0120E030E02F
:1006800040E85FE30E94201088231CF461E070E0E2
:1006900023C0C801B70120E03FEF4FE757E40E94B5
:1006A000C00F1816ACF4C601B50120E030E040E2FE
:1006B00051E40E941A0E0E94440CCB01672B79F082
:1006C00029E130E0F9013197F1F70197D9F707C037
:1006D000C801B7010E94440CCB010197F1F71F91AB
:1006E0000F91FF90EF90DF90CF90BF90AF90089563
:1006F00008950895089580E060E041E020E00E94C0
:100700006A0080E061E041E020E00E946A0080E051
:1007100062E041E020E00E946A0080E063E041E0A6
:1007200020E00E946A0080E064E041E020E00E9456
:100730006A0008951F93182F1150412F417080E0D7
:1007400060E00E941B01412F4695417080E061E00E
:100750000E941B01412F46954695417080E062E062
:100760000E941B01412F469546954695417080E0B9
:1007700063E00E941B0112951F70117080E064E01D
:10078000412F0E941B0184E690E00E94A6021F9167
:100790000895089580E065E041E021E00E946A004C
:1007A00008958F929F92AF92BF92CF92DF92EF9275
:1007B000FF920F931F93DF93CF9300D000D0CDB75C
:1007C000DEB74C018FEF9FEF9A8389831C821B82D7
:1007D00080E065E040E00E941B018E010F5F1F4F2B
:1007E00068010894C11CD11C0F2EF3E0AF2EBB246E
:1007F000F02DAC0EBD1EEE24FF246894E2F8EC0E42
:10080000FD1EC601B7010E948402C801B5010E9405
:10081000840280E065E041E00E941B0184E690E0F4
:100820000E94A60280E065E040E00E941B01C60134
:10083000B7010E948402C801B5010E94840280E0D1
:1008400065E041E00E941B016B817C8180E090E0CB
:100850000E94A41020E030E44CE955E40E941A0EF6
:1008600020E030E040E857E30E941A0EF401608374
:100870007183828393830F900F900F900F90CF918D
:10088000DF911F910F91FF90EF90DF90CF90BF907D
:10089000AF909F908F900895089582E060E041E0CE
:1008A00020E00E946A0082E061E041E020E00E94D6
:1008B0006A0082E062E041E020E00E946A0082E09B
:1008C00063E041E020E00E946A0082E064E041E0F1
:1008D00020E00E946A0082E065E041E020E00E94A2
:1008E0006A0082E066E041E020E00E946A0082E067
:1008F00067E041E020E00E946A0083E060E041E0C0
:1009000020E00E946A0083E061E041E020E00E9474
:100910006A0083E062E041E020E00E946A0083E038
:1009200063E041E020E00E946A0083E064E041E08F
:1009300020E00E946A0083E065E041E020E00E9440
:100940006A0083E066E041E020E00E946A0083E004
:1009500067E041E020E00E946A000895FF920F9353
:100960001F939C016AE070E00E941213182FC901C6
:100970006AE070E00E941213062FF72E412F41709B
:1009800082E060E00E941B01412F4695417082E0A9
:1009900061E00E941B01412F46954695417082E01F
:1009A00062E00E941B01169516951695117082E063
:1009B00063E0412F0E941B01802F9F2D6AE070E0B1
:1009C0000E941213182F802F9F2D6AE070E00E9462
:1009D0001213062FF72E412F417082E064E00E942F
:1009E0001B01412F4695417082E065E00E941B018A
:1009F000412F46954695417082E066E00E941B01BA
:100A0000169516951695117082E067E0412F0E94A9
:100A10001B01802F9F2D6AE070E00E941213182F97
:100A2000482F417083E060E00E941B01412F4695F2
:100A3000417083E061E00E941B01412F469546957D
:100A4000417083E062E00E941B0116951695169591
:100A5000117083E063E0412F0E941B01802F9F2DC6
:100A60006AE070E00E941213CB016AE070E00E941D
:100A70001213182F482F417083E064E00E941B017D
:100A8000412F4695417083E065E00E941B01412F94
:100A900046954695417083E066E00E941B011695DD
:100AA00016951695117083E067E0412F0E941B0197
:100AB0001F910F91FF900895CF93DF93DC019B016D
:100AC0009C919923C9F0EBE2F0E0CCE2D0E05DE04C
:100AD0004AE09A3049F4808185FFFDCF58838081B8
:100AE00085FFFDCF488304C0808185FFFDCF9883BB
:100AF00011969C91992369F781E0F9018083DF9138
:100B0000CF9108950895E0E4F0E010828CE089B977
:100B100082E08BB988E98AB986E880837894089561
:100B20001F920F920FB60F9211242F938F939F93C2
:100B3000EF93FF932CB18091AB03882309F045C05C
:100B40002A3009F442C02D30C9F481E08093AB0310
:100B50008091AC03EFEAF3E0E80FF11D1082EBE2C5
:100B6000F0E0808185FFFDCF8DE08CB9EBE2F0E015
:100B7000808185FFFDCF8AE08CB927C0283099F4A9
:100B80008091AC03882309F181508093AC03EFEA94
:100B9000F3E0E80FF11D1082EBE2F0E0808185FFC9
:100BA000FDCF2CB912C08091AC03843170F4EFEA10
:100BB000F3E0E80FF11D20838F5F8093AC03EBE23D
:100BC000F0E0808185FFFDCF2CB9FF91EF919F91DF
:100BD0008F912F910F900FBE0F901F901895CF936C
:100BE000DF939C01EB018091AB03813061F4C9017B
:100BF0006FEA73E00E947E131092AC031092AB0375
:100C000081E0888301C01882DF91CF910895CF924F
:100C1000DF92EF92FF920F931F93DF93CF930F9288
:100C2000CDB7DEB7198200E610E0C8017E01089456
:100C3000E11CF11CB7010E945C058BE890E0B70154
:100C40000E945C050F2EF6EBCF2EF0E0DF2EF02D8C
:100C5000C601B7010E945C0581EE90E0B7010E94D9
:100C60005C058CE091E0B7010E945C05C601B7010C
:100C70000E945C0587E391E0B7010E945C05C80112
:100C8000B7010E945C0582E691E0B7010E945C0515
:100C900084E691E0B7010E945C050F90CF91DF914F
:100CA0001F910F91FF90EF90DF90CF9008950F93D9
:100CB0001F93DF93CF93CDB7DEB767970FB6F89446
:100CC000DEBF0FBECDBF19821B821A82FE01349691
:100CD00084E1DF011D928A95E9F784EC93E0BE017F
:100CE0006F5F7F4F0E94EF058981813009F0C1C598
:100CF00084EC93E068E671E00E947013009709F4B9
:100D0000B1C56DE671E00E947513282F392F232B92
:100D100009F0A1C580E090E068E671E00E947013E0
:100D20008C01009741F481E791E0BE016F5F7F4F36
:100D30000E945C0597C564E871E00E947513282F36
:100D4000392F232B19F581E0BE016E5F7F4F0E9482
:100D5000C00100D000D000D0EDB7FEB73196CE0173
:100D600004969183808387E891E0938382838A81CC
:100D70009B81958384830E94AC138DB79EB70696A2
:100D80000FB6F8949EBF0FBE8DBF5DC5C8016BE85E
:100D900071E00E947513282F392F232B19F582E05B
:100DA000BE016E5F7F4F0E94C00100D000D000D016
:100DB000EDB7FEB73196CE0104969183808387E824
:100DC00091E0938382838A819B81958384830E94AF
:100DD000AC13ADB7BEB716960FB6F894BEBF0FBE34
:100DE000ADBF31C5C8016EE871E00E947513282FB0
:100DF000392F232B19F583E0BE016E5F7F4F0E94D0
:100E0000C00100D000D000D0EDB7FEB73196CE01C2
:100E100004969183808387E891E0938382838A811B
:100E20009B81958384830E94AC138DB79EB70696F1
:100E30000FB6F8949EBF0FBE8DBF05C5C80161E90E
:100E400071E00E947513282F392F232B19F584E0A8
:100E5000BE016E5F7F4F0E94C00100D000D000D065
:100E6000EDB7FEB73196CE0104969183808387E873
:100E700091E0938382838A819B81958384830E94FE
:100E8000AC13ADB7BEB716960FB6F894BEBF0FBE83
:100E9000ADBFD9C4C80164E971E00E947513282F61
:100EA000392F232B19F585E0BE016E5F7F4F0E941D
:100EB000C00100D000D000D0EDB7FEB73196CE0112
:100EC00004969183808387E891E0938382838A816B
:100ED0009B81958384830E94AC138DB79EB7069641
:100EE0000FB6F8949EBF0FBE8DBFADC4C80167E9B1
:100EF00071E00E947513282F392F232B19F586E0F6
:100F0000BE016E5F7F4F0E94C00100D000D000D0B4
:100F1000EDB7FEB73196CE0104969183808387E8C2
:100F200091E0938382838A819B81958384830E944D
:100F3000AC13ADB7BEB716960FB6F894BEBF0FBED2
:100F4000ADBF81C4C8016AE971E00E947513282F02
:100F5000392F232B19F587E0BE016E5F7F4F0E946A
:100F6000C00100D000D000D0EDB7FEB73196CE0161
:100F700004969183808387E891E0938382838A81BA
:100F80009B81958384830E94AC138DB79EB7069690
:100F90000FB6F8949EBF0FBE8DBF55C4C8016DE952
:100FA00071E00E947513282F392F232B19F588E043
:100FB000BE016E5F7F4F0E94C00100D000D000D004
:100FC000EDB7FEB73196CE0104969183808387E812
:100FD00091E0938382838A819B81958384830E949D
:100FE000AC13ADB7BEB716960FB6F894BEBF0FBE22
:100FF000ADBF29C4C80160EA71E00E947513282FB3
:10100000392F232B19F589E0BE016E5F7F4F0E94B7
:10101000C00100D000D000D0EDB7FEB73196CE01B0
:1010200004969183808387E891E0938382838A8109
:101030009B81958384830E94AC138DB79EB70696DF
:101040000FB6F8949EBF0FBE8DBFFDC3C80163EA03
:1010500071E00E947513282F392F232B19F58AE090
:10106000BE016E5F7F4F0E94C00100D000D000D053
:10107000EDB7FEB73196CE0104969183808387E861
:1010800091E0938382838A819B81958384830E94EC
:10109000AC13ADB7BEB716960FB6F894BEBF0FBE71
:1010A000ADBFD1C3C80167EA71E00E947513282F54
:1010B000392F232B19F58BE0BE016E5F7F4F0E9405
:1010C000C00100D000D000D0EDB7FEB73196CE0100
:1010D00004969183808387E891E0938382838A8159
:1010E0009B81958384830E94AC138DB79EB706962F
:1010F0000FB6F8949EBF0FBE8DBFA5C3C8016BEAA3
:1011000071E00E947513282F392F232B19F58CE0DD
:10111000BE016E5F7F4F0E94C00100D000D000D0A2
:10112000EDB7FEB73196CE0104969183808387E8B0
:1011300091E0938382838A819B81958384830E943B
:10114000AC13ADB7BEB716960FB6F894BEBF0FBEC0
:10115000ADBF79C3C8016FEA71E00E947513282FF3
:10116000392F232B19F58DE0BE016E5F7F4F0E9452
:10117000C00100D000D000D0EDB7FEB73196CE014F
:1011800004969183808387E891E0938382838A81A8
:101190009B81958384830E94AC138DB79EB706967E
:1011A0000FB6F8949EBF0FBE8DBF4DC3C80163EB51
:1011B00071E00E947513282F392F232B19F58EE02B
:1011C000BE016E5F7F4F0E94C00100D000D000D0F2
:1011D000EDB7FEB73196CE0104969183808387E800
:1011E00091E0938382838A819B81958384830E948B
:1011F000AC13ADB7BEB716960FB6F894BEBF0FBE10
:10120000ADBF21C3C80167EB71E00E947513282FA1
:10121000392F232B19F58FE0BE016E5F7F4F0E949F
:10122000C00100D000D000D0EDB7FEB73196CE019E
:1012300004969183808387E891E0938382838A81F7
:101240009B81958384830E94AC138DB79EB70696CD
:101250000FB6F8949EBF0FBE8DBFF5C2C8016BEBF1
:1012600071E00E947513282F392F232B19F580E187
:10127000BE016E5F7F4F0E94C00100D000D000D041
:10128000EDB7FEB73196CE0104969183808387E84F
:1012900091E0938382838A819B81958384830E94DA
:1012A000AC13ADB7BEB716960FB6F894BEBF0FBE5F
:1012B000ADBFC9C2C8016FEB71E00E947513282F42
:1012C000392F232B19F581E1BE016E5F7F4F0E94FC
:1012D000C00100D000D000D0EDB7FEB73196CE01EE
:1012E00004969183808387E891E0938382838A8147
:1012F0009B81958384830E94AC138DB79EB706961D
:101300000FB6F8949EBF0FBE8DBF9DC2C80163EC9F
:1013100071E00E947513282F392F232B19F582E1D4
:10132000BE016E5F7F4F0E94C00100D000D000D090
:10133000EDB7FEB73196CE0104969183808387E89E
:1013400091E0938382838A819B81958384830E9429
:10135000AC13ADB7BEB716960FB6F894BEBF0FBEAE
:10136000ADBF71C2C80167EC71E00E947513282FF0
:10137000392F232B19F583E1BE016E5F7F4F0E9449
:10138000C00100D000D000D0EDB7FEB73196CE013D
:1013900004969183808387E891E0938382838A8196
:1013A0009B81958384830E94AC138DB79EB706966C
:1013B0000FB6F8949EBF0FBE8DBF45C2C8016BEC3F
:1013C00071E00E947513282F392F232B19F584E122
:1013D000BE016E5F7F4F0E94C00100D000D000D0E0
:1013E000EDB7FEB73196CE0104969183808387E8EE
:1013F00091E0938382838A819B81958384830E9479
:10140000AC13ADB7BEB716960FB6F894BEBF0FBEFD
:10141000ADBF19C2C8016FEC71E00E947513282F8F
:10142000392F232B19F585E1BE016E5F7F4F0E9496
:10143000C00100D000D000D0EDB7FEB73196CE018C
:1014400004969183808387E891E0938382838A81E5
:101450009B81958384830E94AC138DB79EB70696BB
:101460000FB6F8949EBF0FBE8DBFEDC1C80163EDEE
:1014700071E00E947513282F392F232B19F586E16F
:10148000BE016E5F7F4F0E94C00100D000D000D02F
:10149000EDB7FEB73196CE0104969183808387E83D
:1014A00091E0938382838A819B81958384830E94C8
:1014B000AC13ADB7BEB716960FB6F894BEBF0FBE4D
:1014C000ADBFC1C1C80167ED71E00E947513282F3F
:1014D000392F232B19F587E1BE016E5F7F4F0E94E4
:1014E000C00100D000D000D0EDB7FEB73196CE01DC
:1014F00004969183808387E891E0938382838A8135
:101500009B81958384830E94AC138DB79EB706960A
:101510000FB6F8949EBF0FBE8DBF95C1C8016BED8D
:1015200071E00E947513282F392F232B19F588E1BC
:10153000BE016E5F7F4F0E94C00100D000D000D07E
:10154000EDB7FEB73196CE0104969183808387E88C
:1015500091E0938382838A819B81958384830E9417
:10156000AC13ADB7BEB716960FB6F894BEBF0FBE9C
:10157000ADBF69C1C8016FED71E00E947513282FDE
:10158000392F232B19F589E1BE016E5F7F4F0E9431
:10159000C00100D000D000D0EDB7FEB73196CE012B
:1015A00004969183808387E891E0938382838A8184
:1015B0009B81958384830E94AC138DB79EB706965A
:1015C0000FB6F8949EBF0FBE8DBF3DC1C80163EE3C
:1015D00071E00E947513282F392F232B19F58AE10A
:1015E000BE016E5F7F4F0E94C00100D000D000D0CE
:1015F000EDB7FEB73196CE0104969183808387E8DC
:1016000091E0938382838A819B81958384830E9466
:10161000AC13ADB7BEB716960FB6F894BEBF0FBEEB
:10162000ADBF11C1C80167EE71E00E947513282F8C
:10163000392F232B19F58BE1BE016E5F7F4F0E947E
:10164000C00100D000D000D0EDB7FEB73196CE017A
:1016500004969183808387E891E0938382838A81D3
:101660009B81958384830E94AC138DB79EB70696A9
:101670000FB6F8949EBF0FBE8DBFE5C0C8016BEEDC
:1016800071E00E947513282F392F232B19F58CE157
:10169000BE016E5F7F4F0E94C00100D000D000D01D
:1016A000EDB7FEB73196CE0104969183808387E82B
:1016B00091E0938382838A819B81958384830E94B6
:1016C000AC13ADB7BEB716960FB6F894BEBF0FBE3B
:1016D000ADBFB9C0C8016FEE71E00E947513282F2D
:1016E000392F232B19F58DE1BE016E5F7F4F0E94CC
:1016F000C00100D000D000D0EDB7FEB73196CE01CA
:1017000004969183808387E891E0938382838A8122
:101710009B81958384830E94AC138DB79EB70696F8
:101720000FB6F8949EBF0FBE8DBF8DC0C80163EF8A
:1017300071E00E947513282F392F232B19F58EE1A4
:10174000BE016E5F7F4F0E94C00100D000D000D06C
:10175000EDB7FEB73196CE0104969183808387E87A
:1017600091E0938382838A819B81958384830E9405
:10177000AC13ADB7BEB716960FB6F894BEBF0FBE8A
:10178000ADBF61C0C80167EF71E00E947513282FDB
:10179000392F232B19F58FE1BE016E5F7F4F0E9419
:1017A000C00100D000D000D0EDB7FEB73196CE0119
:1017B00004969183808387E891E0938382838A8172
:1017C0009B81958384830E94AC138DB79EB7069648
:1017D0000FB6F8949EBF0FBE8DBF35C0C8016BEF2A
:1017E00071E00E947513282F392F232B19F580E201
:1017F000BE016E5F7F4F0E94C00100D000D000D0BC
:10180000EDB7FEB73196CE0104969183808387E8C9
:1018100091E0938382838A819B81958384830E9454
:10182000AC13ADB7BEB716960FB6F894BEBF0FBED9
:10183000ADBF09C0DE011496EFEFF1E08DE001903D
:101840000D928150E1F7CE010496BE016F5F7F4F8C
:101850000E945C0507C08CE092E0BE016F5F7F4F85
:101860000E945C0584E691E0BE016F5F7F4F0E949D
:101870005C0567960FB6F894DEBF0FBECDBFCF9163
:10188000DF911F910F910895EF92FF920F931F9395
:101890007B018C0120E030E040E05FE40E94F00F2B
:1018A00088238CF0C801B70120E030E040E05FE41D
:1018B0000E94BC0D0E9450109B01AC012050304092
:1018C0004040504806C0C801B7010E9450109B011B
:1018D000AC01B901CA011F910F91FF90EF900895DB
:1018E000A0E0B0E0E6E7FCE00C943913DC012B014A
:1018F000FA019C91923008F439C1EB018881823061
:1019000008F433C1943069F4843009F02FC1119682
:101910009C9111978981981709F428C1ADE1B2E033
:1019200025C1843009F421C18230A9F4923009F034
:101930001DC19A01AD0188E0EA010990AE01E901FB
:1019400009929E018150C1F7E201898111969C9113
:101950008923818308C1923009F407C112962D9022
:101960003C901397EB018A819B811496AD90BD90BA
:10197000CD90DC901797EC80FD800E811F81910146
:10198000281B390BB90137FF04C066277727621B74
:10199000730B603271050CF061C0121613066CF502
:1019A00037014801062E04C0969487947794679473
:1019B0000A94D2F721E030E040E050E004C0220F6A
:1019C000331F441F551F6A95D2F7215030404040C5
:1019D00050402E213F21402351232115310541053F
:1019E000510521F021E030E040E050E079018A012A
:1019F000E628F728082919293CC0232BD1F1260E07
:101A0000371E35014601062E04C0969487947794BC
:101A100067940A94D2F721E030E040E050E004C03F
:101A2000220F331F441F551F6A95D2F721503040B3
:101A3000404050402A213B214C215D212115310598
:101A40004105510521F021E030E040E050E059012E
:101A50006A01A628B728C828D9280BC08215930583
:101A60002CF01C01AA24BB24650103C0EE24FF2432
:101A7000870111969C91D20111968C91981709F4C7
:101A800045C0992339F0A80197012A193B094C094F
:101A90005D0906C0A60195012E193F09400B510BA7
:101AA00057FD08C011823382228224833583468306
:101AB00057831DC081E08183338222828827992742
:101AC000DC01821B930BA40BB50B84839583A68347
:101AD000B7830DC0220F331F441F551F2483358346
:101AE00046835783828193810197938382832481E4
:101AF000358146815781DA01C9010197A109B109F0
:101B00008F5F9F4FAF4FBF4328F30BC0918333824A
:101B10002282EA0CFB1C0C1D1D1DE482F58206834B
:101B2000178383E08083248135814681578157FF65
:101B30001AC0C901AA2797FDA095BA2F817090708D
:101B4000A070B0705695479537952795822B932BAB
:101B5000A42BB52B84839583A683B783828193813D
:101B6000019693838283DF0101C0D201CD01CDB7FD
:101B7000DEB7E2E10C945513A0E2B0E0E2ECFDE048
:101B80000C94451369837A838B839C832D833E83D6
:101B90004F835887E9E0EE2EF12CEC0EFD1ECE01AE
:101BA0000196B7010E9441128E010F5E1F4FCE01B8
:101BB0000596B8010E9441128A8991E089278A8B93
:101BC000C701B801AE01475E5F4F0E94700C0E94D2
:101BD0006C11A096E6E00C946113A0E2B0E0E3EF94
:101BE000FDE00C94451369837A838B839C832D835A
:101BF0003E834F835887F9E0EF2EF12CEC0EFD1E4B
:101C0000CE010196B7010E9441128E010F5E1F4F57
:101C1000CE010596B8010E944112C701B801AE017C
:101C2000475E5F4F0E94700C0E946C11A096E6E028
:101C30000C946113A0E2B0E0E0E2FEE00C943913F2
:101C400069837A838B839C832D833E834F8358875C
:101C5000CE010196BE01675F7F4F0E944112CE0107
:101C60000596BE016F5E7F4F0E94411299859230AA
:101C700088F089898230C8F0943019F4823051F4A8
:101C800004C0843029F4923081F48DE192E0C6C022
:101C9000923049F420E09A858A89981321E02A87B6
:101CA000CE010996BBC0823049F420E09A858A892A
:101CB000981321E02A8BCE014196B0C02D843E843A
:101CC0004F8458886D887E888F88988CEE24FF24F6
:101CD0008701AA24BB24650140E050E060E070E089
:101CE000E0E0F0E0C10181709070892BE9F0E60C32
:101CF000F71C081D191D9A01AB012A0D3B1D4C1D37
:101D00005D1D80E090E0A0E0B0E0E614F704080577
:101D1000190520F481E090E0A0E0B0E0BA01A9014B
:101D2000480F591F6A1F7B1FAA0CBB1CCC1CDD1C53
:101D300097FE08C081E090E0A0E0B0E0A82AB92AB0
:101D4000CA2ADB2A3196E032F10549F0660C771C8D
:101D5000881C991C5694479437942794C3CFFA85CE
:101D6000EA892B893C898B859C85280F391F2E5F3A
:101D70003F4F17C0CA0181709070892B61F0169592
:101D80000795F794E79480E090E0A0E0B0E8E82AB7
:101D9000F92A0A2B1B2B76956795579547952F5F48
:101DA0003F4F77FDE7CF0CC0440F551F661F771FCD
:101DB00017FD4160EE0CFF1C001F111F2150304029
:101DC000403090E0590790E0690790E4790760F3AC
:101DD0002B8F3C8FDB01CA018F779070A070B070A1
:101DE00080349105A105B10561F447FD0AC0E114F5
:101DF000F1040105110529F0405C5F4F6F4F7F4FE3
:101E000040781A8EFE1711F081E08A8F4D8F5E8F19
:101E10006F8F78A383E0898FCE0149960E946C1161
:101E2000A096E2E10C945513A8E1B0E0EAE1FFE0EE
:101E30000C94411369837A838B839C832D833E8327
:101E40004F835887B9E0EB2EF12CEC0EFD1ECE012E
:101E50000196B7010E9441128E010F5E1F4FCE0105
:101E60000596B8010E9441122985223008F47EC0EF
:101E70003989323010F4B8017CC08A859A89892763
:101E80008A87243011F0223031F4231709F06EC014
:101E90006DE172E06EC0343039F41D861E861F86F7
:101EA000188A1C861B8604C0323021F484E089879E
:101EB000B7015FC02B853C858B899C89281B390B1A
:101EC0003C872B87ED84FE840F851889AD88BE88FA
:101ED000CF88D88CEA14FB040C051D0540F4EE0CE9
:101EE000FF1C001F111F215030403C872B8720E032
:101EF00030E040E050E080E090E0A0E0B0E460E05E
:101F000070E0EA14FB040C051D0540F0282B392B6A
:101F10004A2B5B2BEA18FB080C091D09B695A795FF
:101F200097958795EE0CFF1C001F111F6F5F7F4F69
:101F30006F31710531F7DA01C9018F779070A070A8
:101F4000B07080349105A105B10561F427FD0AC088
:101F5000E114F1040105110529F0205C3F4F4F4FBA
:101F60005F4F20782D873E874F87588BBE01675F74
:101F70007F4FCB010E946C116896EAE00C945D13D0
:101F8000A8E1B0E0E6ECFFE00C94451369837A83A6
:101F90008B839C832D833E834F83588789E0E82E73
:101FA000F12CEC0EFD1ECE010196B7010E944112EC
:101FB0008E010F5E1F4FCE010596B8010E9441129F
:101FC0008985823040F08989823028F0C701B801C4
:101FD0000E94B91201C08FEF6896E6E00C9461137D
:101FE000A8E1B0E0E6EFFFE00C94451369837A8343
:101FF0008B839C832D833E834F83588789E0E82E13
:10200000F12CEC0EFD1ECE010196B7010E9441128B
:102010008E010F5E1F4FCE010596B8010E9441123E
:102020008985823040F08989823028F0C701B80163
:102030000E94B91201C08FEF6896E6E00C9461131C
:10204000A8E1B0E0E6E2F0E10C94451369837A83FD
:102050008B839C832D833E834F83588789E0E82EB2
:10206000F12CEC0EFD1ECE010196B7010E9441122B
:102070008E010F5E1F4FCE010596B8010E944112DE
:102080008985823040F08989823028F0C701B80103
:102090000E94B91201C081E06896E6E00C946113D9
:1020A000ACE0B0E0E6E5F0E10C94491369837A8393
:1020B0008B839C83CE010196BE016B5F7F4F0E9494
:1020C00041128D81823061F1823050F1843021F4EF
:1020D0008E81882351F12EC02F81388537FD20C095
:1020E0006E812F3131051CF06623F9F023C08EE19B
:1020F00090E0821B930B29853A854B855C8504C053
:1021000056954795379527958A95D2F76623B1F06E
:1021100050954095309521953F4F4F4F5F4F0EC0E2
:1021200020E030E040E050E009C02FEF3FEF4FEFFC
:102130005FE704C020E030E040E050E8B901CA01A8
:102140002C96E2E00C946513A8E0B0E0EAEAF0E136
:102150000C9441137B018C0161157105810591057A
:1021600019F482E0898360C083E089838EE1C82E00
:10217000D12CDC82CB82ED82FE820F831887C801CE
:10218000B7010E941D11FC013197F7FF3BC02227C8
:1021900033272E1B3F0B57016801022E04C0D69433
:1021A000C794B794A7940A94D2F740E050E060E057
:1021B00070E081E090E0A0E0B0E004C0880F991FDB
:1021C000AA1FBB1F2A95D2F70197A109B1098E2139
:1021D0009F21A023B1230097A105B10521F041E083
:1021E00050E060E070E04A295B296C297D294D832D
:1021F0005E836F8378878EE190E08E1B9F0B9C83BC
:102200008B8312C0309781F00E2E04C0EE0CFF1CA1
:10221000001F111F0A94D2F7ED82FE820F831887E8
:10222000CE1ADF0ADC82CB821A82CE0101960E948E
:102230006C112896EAE00C945D13EF92FF920F93D5
:102240001F937B018C0180E0E81680E0F80681E0B6
:10225000080780E0180788F48FEFE816F1040105FD
:10226000110531F028F088E090E0A0E0B0E017C060
:1022700080E090E0A0E0B0E012C080E0E81680E0EE
:10228000F80680E0080781E0180728F088E190E070
:10229000A0E0B0E004C080E190E0A0E0B0E020E287
:1022A00030E040E050E0281B390B4A0B5B0B04C0C8
:1022B00016950795F794E7948A95D2F7F701EB5DA9
:1022C000FD4F8081281B310941095109C9011F9126
:1022D0000F91FF90EF900895DF92EF92FF920F938E
:1022E0001F93FC01E480F58006811781D1808081F5
:1022F000823048F480E090E0A0E1B0E0E82AF92ADA
:102300000A2B1B2BA5C0843009F49FC0823021F416
:10231000EE24FF24870105C0E114F1040105110535
:1023200019F4E0E0F0E096C0628173819FEF6238BB
:1023300079070CF05BC022E83FEF261B370B2A31F0
:1023400031052CF020E030E040E050E02AC0B80138
:10235000A701022E04C076956795579547950A9474
:10236000D2F781E090E0A0E0B0E004C0880F991FB0
:10237000AA1FBB1F2A95D2F70197A109B1098E2187
:102380009F21A023B1230097A105B10521F081E091
:1023900090E0A0E0B0E09A01AB01282B392B4A2B4A
:1023A0005B2BDA01C9018F779070A070B070803418
:1023B0009105A105B10539F427FF09C0205C3F4F05
:1023C0004F4F5F4F04C0215C3F4F4F4F5F4FE0E0E6
:1023D000F0E02030A0E03A07A0E04A07A0E45A0766
:1023E00010F0E1E0F0E079018A0127C06038710562
:1023F00064F5FB01E158FF4FD801C7018F7790705A
:10240000A070B07080349105A105B10539F4E7FEE4
:102410000DC080E490E0A0E0B0E004C08FE390E065
:10242000A0E0B0E0E80EF91E0A1F1B1F17FF05C051
:1024300016950795F794E794319687E016950795DA
:10244000F794E7948A95D1F705C0EE24FF2487011D
:10245000EFEFF0E06E2F679566276795902F9F77D7
:10246000D794DD24D7948E2F8695492F462B582F4D
:102470005D29B701CA011F910F91FF90EF90DF9086
:102480000895FC01DB01408151812281622F6F7729
:1024900070E0221F2227221F9381892F880F822B11
:1024A000282F30E0991F9927991F11969C93119717
:1024B00021153105A9F5411551056105710511F485
:1024C00082E037C082E89FEF13969C938E93129719
:1024D0009A01AB0167E0220F331F441F551F6A9515
:1024E000D1F783E08C930DC0220F331F441F551F7B
:1024F00012968D919C911397019713969C938E93AE
:102500001297203080E0380780E0480780E45807C1
:1025100058F314962D933D934D935C93179708951C
:102520002F3F310579F4411551056105710519F405
:1025300084E08C93089564FF03C081E08C9312C003
:102540001C9210C02F57304013963C932E93129735
:1025500083E08C9387E0440F551F661F771F8A9591
:10256000D1F7706414964D935D936D937C93179798
:1025700008951F93DC01FB019C91923008F447C041
:102580008081823008F443C0943051F411961C913C
:10259000843099F58181682F70E0611B71093FC01B
:1025A000843021F0923031F48230B9F18181882376
:1025B00089F12DC011961C9111978230F1F0818123
:1025C0001817D9F412962D913C911397828193811B
:1025D0008217930794F028173907BCF014968D9151
:1025E0009D910D90BC91A02D24813581468157810C
:1025F000281739074A075B0718F4112341F00AC06E
:1026000082179307A407B50740F4112319F061E07E
:1026100070E005C06FEF7FEF02C060E070E0CB01BB
:102620001F910895AA1BBB1B51E107C0AA1FBB1F26
:10263000A617B70710F0A61BB70B881F991F5A954E
:10264000A9F780959095BC01CD01089597FB092EBF
:1026500007260AD077FD04D0E5DF06D000201AF463
:10266000709561957F4F0895F6F7909581959F4FEE
:1026700008952F923F924F925F926F927F928F9226
:102680009F92AF92BF92CF92DF92EF92FF920F9301
:102690001F93CF93DF93CDB7DEB7CA1BDB0B0FB60B
:1026A000F894DEBF0FBECDBF09942A8839884888C8
:1026B0005F846E847D848C849B84AA84B984C8845E
:1026C000DF80EE80FD800C811B81AA81B981CE0F55
:1026D000D11D0FB6F894DEBF0FBECDBFED0108953A
:1026E0004DEA53E00E9485130895FB01DC018D91B2
:1026F000019080190110D9F3990B0895FB01DC01B9
:1027000001900D920020E1F70895FA01A191B081A6
:10271000009719F41097E1F0CD01DC01CD010D9087
:10272000002011F4C00113C0FB012191222319F0F4
:102730002015D9F7F3CFFB012191201519F41E9232
:10274000119606C02223C1F70D900020A1F7D001F9
:10275000FA01A193B0830895AEE0B0E0E2EBF3E1BB
:102760000C9447130D891E8986E08C831A83098394
:102770008FEF9FE79E838D839E01275E3F4FCE01A3
:1027800001966F89788DA9010E94D0132F81388519
:10279000020F131FF80110822E96E4E00C946313CD
:1027A000ABE0B0E0E6EDF3E10C9439133C012B0112
:1027B0005A01FC0117821682838181FD03C06FEFED
:1027C0007FEFC6C19AE0892E1E010894211C311C9E
:1027D000F3012381F20123FD859123FF81912F01D4
:1027E000882309F4B2C1853239F423FD859123FF92
:1027F00081912F01853229F490E0B3010E94C31525
:10280000E7CF982FFF24EE249924FFE1FF15D0F0A5
:102810009B3269F09C3228F4903259F0933291F453
:102820000EC09D3249F0903369F441E024C052E07B
:10283000F52A84E0F82A28C098E0F92A25C0E0E1CA
:10284000FE2A22C0F7FC29C0892F80538A3070F4F9
:10285000F6FE05C0989C902C1124980E15C0E89C9B
:10286000E02C1124E80EF0E2FF2A0EC09E3229F47B
:10287000F6FC6BC140E4F42A07C09C3619F450E81A
:10288000F52A02C0983649F4F20123FD959123FF01
:1028900091912F01992309F0B8CF892F8554833066
:1028A00018F08052833038F444E050E0A40EB51E96
:1028B0005FE359830FC0933631F0933779F0933546
:1028C00009F056C020C0F5018081898342E050E0C4
:1028D000A40EB51E610101E010E012C0F501C08038
:1028E000D180F6FC03C06FEF7FEF02C0692D70E06E
:1028F00042E050E0A40EB51EC6010E94B8158C013E
:102900005FE7F52214C0F501C080D180F6FC03C05A
:102910006FEF7FEF02C0692D70E042E050E0A40E3F
:10292000B51EC6010E94AD158C0150E8F52AF3FED4
:1029300007C01AC080E290E0B3010E94C315EA9478
:102940008E2D90E008171907A8F30EC0F601F7FCCA
:102950008591F7FE81916F0190E0B3010E94C3154C
:10296000E110EA94015010400115110579F7EAC011
:10297000943611F0993669F5F7FE08C0F50120810B
:1029800031814281538184E090E00AC0F501808169
:1029900091819C01442737FD4095542F82E090E0BF
:1029A000A80EB91E9FE6F92257FF09C05095409521
:1029B000309521953F4F4F4F5F4FE0E8FE2ACA0107
:1029C000B901A1012AE030E00E94EF15D82ED218FB
:1029D00040C0953729F41F2D1F7E2AE030E01DC02E
:1029E0001F2D197F9F3661F0903720F4983509F03C
:1029F000ACC00FC0903739F0983709F0A6C004C0BA
:102A000028E030E00AC0106114FD146020E130E0DD
:102A100004C014FD166020E132E017FF08C0F50184
:102A2000608171818281938144E050E008C0F501AA
:102A300080819181BC0180E090E042E050E0A40EF2
:102A4000B51EA1010E94EF15D82ED2188FE7F82EDF
:102A5000F122F6FE0BC05EEFF522D91438F4F4FE35
:102A600007C0F2FC05C08FEEF82202C01D2D01C088
:102A7000192DF4FE0DC0FE01ED0DF11D8081803396
:102A800019F499EEF92208C01F5FF2FE05C003C0D9
:102A90008F2D867809F01F5F0F2DF3FC14C0F0FE18
:102AA0000FC01E1510F09D2C0BC09D2C9E0C911A72
:102AB0001E2D06C080E290E0B3010E94C3151F5F87
:102AC0001E15C0F304C01E1510F4E11A01C0EE2457
:102AD00004FF0FC080E390E0B3010E94C31502FF22
:102AE0001DC001FD03C088E790E00EC088E590E0BE
:102AF0000BC0802F867891F001FF02C08BE201C0ED
:102B000080E2F7FC8DE290E0B3010E94C31506C09D
:102B100080E390E0B3010E94C3159A94D914C0F3E6
:102B2000DA94F101ED0DF11D808190E0B3010E9476
:102B3000C315DD20A9F706C080E290E0B3010E9432
:102B4000C315EA94EE20C1F743CEF3016681778185
:102B5000CB012B96E2E10C945513FC0105906150DA
:102B600070400110D8F7809590958E0F9F1F0895A3
:102B7000FC016150704001900110D8F7809590954C
:102B80008E0F9F1F08950F931F93CF93DF938C0198
:102B9000EB018B8181FF1BC082FF0DC02E813F8125
:102BA0008C819D812817390764F4E881F9810193AC
:102BB000F983E88306C0E885F985802F0995892B7C
:102BC00031F48E819F8101969F838E8302C00FEF27
:102BD0001FEFC801DF91CF911F910F910895FA0166
:102BE000AA27283051F1203181F1E8946F936E7F4C
:102BF0006E5F7F4F8F4F9F4FAF4FB1E03ED0B4E03D
:102C00003CD0670F781F891F9A1FA11D680F791F7D
:102C10008A1F911DA11D6A0F711D811D911DA11D8E
:102C200020D009F468943F912AE0269F112430199E
:102C3000305D3193DEF6CF010895462F4770405D39
:102C40004193B3E00FD0C9F7F6CF462F4F70405DE8
:102C50004A3318F0495D31FD4052419302D0A9F743
:102C6000EACFB4E0A6959795879577956795BA953D
:102C7000C9F700976105710508959B01AC010A2E03
:102C800006945795479537952795BA95C9F7620FDA
:0E2C9000731F841F951FA01D0895F894FFCF99
:102C9E002A2A2A2A2A2A2A2A2A2A2A2A2A2A2A2A86
:102CAE002A2A2A2A2A2A2A2A2A2A2A2A2A2A2A2A76
:102CBE002A2A2A2A2A2A2A2A2A0A002020202020E2
:102CCE002020202020202057656C636F6D652074B6
:102CDE006F20424D53202020202020202020202015
:102CEE00202020200A00202020202020202020200C
:102CFE0020202020202020202020202020202020C6
:102D0E002020202020202020202020202020200ACB
:102D1E0000205468697320636F6D6D616E64206C62
:102D2E00696E6520696E7465726661636520616C9B
:102D3E006C6F777320796F7520200A0020746F20D6
:102D4E00636F6E74726F6C2074686520424D5320F1
:102D5E00626F61726420616E6420726561642064CA
:102D6E006174612E200A0020436F70797269676862
:102D7E007420284329204F7A6F6E6520616E64207F
:102D8E0052616D736573204E616769622E2020203B
:102D9E000A000A003E3E200020090D0A0047455455
:102DAE0000455850454354454420564152204E410B
:102DBE004D450A0042310025640A0042320042337A
:102DCE00004234004235004236004237004238009D
:102DDE00423900423130004231310042313200423C
:102DEE003133004231340042313500423136004237
:102DFE003137004231380042313900423230004220
:102E0E00323100423232004232330042323400421A
:102E1E0032350042323600423237004232380042FA
:102E2E0032390042333000423331004233320055E2
:102E3E004E4B4E4F574E205641520A00554E4B4E5A
:102E4E004F574E20434F4D4D414E440A0000000057
:102E5E000000000000000102020303030304040447
:102E6E000404040404050505050505050505050509
:102E7E0005050505050606060606060606060606E9
:102E8E0006060606060606060606060606060606D4
:102E9E0006060606060707070707070707070707B9
:102EAE0007070707070707070707070707070707A4
:102EBE000707070707070707070707070707070794
:102ECE000707070707070707070707070707070784
:102EDE000707070707080808080808080808080869
:102EEE000808080808080808080808080808080854
:102EFE000808080808080808080808080808080844
:102F0E000808080808080808080808080808080833
:102F1E000808080808080808080808080808080823
:102F2E000808080808080808080808080808080813
:102F3E000808080808080808080808080808080803
:102F4E0008080808080808080808080808080808F3
:062F5E0008080808080045
:00000001FF
